{"contracts/ringSigVerifier.sol":{"RingSigVerifier":{"abi":[{"inputs":[],"stateMutability":"nonpayable","type":"constructor"},{"inputs":[{"internalType":"uint256","name":"message","type":"uint256"},{"internalType":"uint256[]","name":"ring","type":"uint256[]"},{"internalType":"uint256[]","name":"responses","type":"uint256[]"},{"internalType":"uint256","name":"c","type":"uint256"}],"name":"verifyRingSignature","outputs":[{"internalType":"bool","name":"","type":"bool"}],"stateMutability":"pure","type":"function"}],"evm":{"bytecode":{"linkReferences":{},"object":"608060405234801561001057600080fd5b50610d5c806100206000396000f3fe608060405234801561001057600080fd5b506004361061002b5760003560e01c806332503eb114610030575b600080fd5b61004a60048036038101906100459190610773565b610060565b604051610057919061082d565b60405180910390f35b600060018451118015610080575060006002855161007e9190610877565b145b6100bf576040517f08c379a00000000000000000000000000000000000000000000000000000000081526004016100b69061092b565b60405180910390fd5b600284516100cd919061097a565b83511461010f576040517f08c379a000000000000000000000000000000000000000000000000000000000815260040161010690610a1d565b60405180910390fd5b600061016f868560008151811061012957610128610a3d565b5b6020026020010151858860008151811061014657610145610a3d565b5b60200260200101518960018151811061016257610161610a3d565b5b6020026020010151610223565b90506000600190505b8451811015610214576101ff85828151811061019757610196610a3d565b5b602002602001015183888460026101ae9190610a6c565b815181106101bf576101be610a3d565b5b60200260200101518960018660026101d79190610a6c565b6101e19190610aae565b815181106101f2576101f1610a3d565b5b602002602001015161030a565b9150808061020c90610ae2565b915050610178565b50808314915050949350505050565b60006102548383600060077ffffffffffffffffffffffffffffffffffffffffffffffffffffffffefffffc2f6103ee565b610293576040517f08c379a000000000000000000000000000000000000000000000000000000000815260040161028a90610b76565b60405180910390fd5b60006102a1868585886104bc565b9050600087826040516020016102b8929190610c31565b60405160208183030381529060405290506102fd818051906020012060001c7ffffffffffffffffffffffffffffffffebaaedce6af48a03bbfd25e8cd036414161059d565b9250505095945050505050565b600061033b8383600060077ffffffffffffffffffffffffffffffffffffffffffffffffffffffffefffffc2f6103ee565b61037a576040517f08c379a000000000000000000000000000000000000000000000000000000000815260040161037190610b76565b60405180910390fd5b6000610388868585886104bc565b905060008160405160200161039d9190610c5d565b60405160208183030381529060405290506103e2818051906020012060001c7ffffffffffffffffffffffffffffffffebaaedce6af48a03bbfd25e8cd036414161059d565b92505050949350505050565b600085600014806103ff5750818610155b8061040a5750846000145b806104155750818510155b1561042357600090506104b3565b6000828061043457610433610848565b5b86870990506000838061044a57610449610848565b5b88858061045a57610459610848565b5b8a8b090990506000861461048e57838061047757610476610848565b5b848061048657610485610848565b5b878a09820890505b600085146104ab5783806104a5576104a4610848565b5b85820890505b808214925050505b95945050505050565b6000807ffffffffffffffffffffffffffffffffebaaedce6af48a03bbfd25e8cd0364141905080806104f1576104f0610848565b5b858288846104ff9190610c78565b6105099190610877565b09955060018660001b60006002876105219190610877565b0361052d57601b610530565b601c5b8760001b848061054357610542610848565b5b89880960001b604051600081526020016040526040516105669493929190610ce1565b6020604051602081039080840390855afa158015610588573d6000803e3d6000fd5b50505060206040510351915050949350505050565b60008082846105ac9190610877565b905060008110156105c65782816105c39190610aae565b90505b8091505092915050565b6000604051905090565b600080fd5b600080fd5b6000819050919050565b6105f7816105e4565b811461060257600080fd5b50565b600081359050610614816105ee565b92915050565b600080fd5b6000601f19601f8301169050919050565b7f4e487b7100000000000000000000000000000000000000000000000000000000600052604160045260246000fd5b6106688261061f565b810181811067ffffffffffffffff8211171561068757610686610630565b5b80604052505050565b600061069a6105d0565b90506106a6828261065f565b919050565b600067ffffffffffffffff8211156106c6576106c5610630565b5b602082029050602081019050919050565b600080fd5b60006106ef6106ea846106ab565b610690565b90508083825260208201905060208402830185811115610712576107116106d7565b5b835b8181101561073b57806107278882610605565b845260208401935050602081019050610714565b5050509392505050565b600082601f83011261075a5761075961061a565b5b813561076a8482602086016106dc565b91505092915050565b6000806000806080858703121561078d5761078c6105da565b5b600061079b87828801610605565b945050602085013567ffffffffffffffff8111156107bc576107bb6105df565b5b6107c887828801610745565b935050604085013567ffffffffffffffff8111156107e9576107e86105df565b5b6107f587828801610745565b925050606061080687828801610605565b91505092959194509250565b60008115159050919050565b61082781610812565b82525050565b6000602082019050610842600083018461081e565b92915050565b7f4e487b7100000000000000000000000000000000000000000000000000000000600052601260045260246000fd5b6000610882826105e4565b915061088d836105e4565b92508261089d5761089c610848565b5b828206905092915050565b600082825260208201905092915050565b7f52696e67206c656e677468206d757374206265206576656e20616e642067726560008201527f61746572207468616e2031000000000000000000000000000000000000000000602082015250565b6000610915602b836108a8565b9150610920826108b9565b604082019050919050565b6000602082019050818103600083015261094481610908565b9050919050565b7f4e487b7100000000000000000000000000000000000000000000000000000000600052601160045260246000fd5b6000610985826105e4565b9150610990836105e4565b9250826109a05761099f610848565b5b828204905092915050565b7f526573706f6e736573206c656e677468206d75737420626520657175616c207460008201527f6f2072696e67206c656e677468202f2032000000000000000000000000000000602082015250565b6000610a076031836108a8565b9150610a12826109ab565b604082019050919050565b60006020820190508181036000830152610a36816109fa565b9050919050565b7f4e487b7100000000000000000000000000000000000000000000000000000000600052603260045260246000fd5b6000610a77826105e4565b9150610a82836105e4565b9250828202610a90816105e4565b91508282048414831517610aa757610aa661094b565b5b5092915050565b6000610ab9826105e4565b9150610ac4836105e4565b9250828201905080821115610adc57610adb61094b565b5b92915050565b6000610aed826105e4565b91507fffffffffffffffffffffffffffffffffffffffffffffffffffffffffffffffff8203610b1f57610b1e61094b565b5b600182019050919050565b7f70726576696f75735075624b6579206973206e6f74206f6e2063757276650000600082015250565b6000610b60601e836108a8565b9150610b6b82610b2a565b602082019050919050565b60006020820190508181036000830152610b8f81610b53565b9050919050565b6000819050919050565b610bb1610bac826105e4565b610b96565b82525050565b600073ffffffffffffffffffffffffffffffffffffffff82169050919050565b6000610be282610bb7565b9050919050565b60008160601b9050919050565b6000610c0182610be9565b9050919050565b6000610c1382610bf6565b9050919050565b610c2b610c2682610bd7565b610c08565b82525050565b6000610c3d8285610ba0565b602082019150610c4d8284610c1a565b6014820191508190509392505050565b6000610c698284610c1a565b60148201915081905092915050565b6000610c83826105e4565b9150610c8e836105e4565b9250828203905081811115610ca657610ca561094b565b5b92915050565b6000819050919050565b610cbf81610cac565b82525050565b600060ff82169050919050565b610cdb81610cc5565b82525050565b6000608082019050610cf66000830187610cb6565b610d036020830186610cd2565b610d106040830185610cb6565b610d1d6060830184610cb6565b9594505050505056fea2646970667358221220e67005d45edfc523eab268d4933a63391967e34316e7938a7f06c7042ad6ee2c64736f6c63430008140033","opcodes":"PUSH1 0x80 PUSH1 0x40 MSTORE CALLVALUE DUP1 ISZERO PUSH2 0x10 JUMPI PUSH1 0x0 DUP1 REVERT JUMPDEST POP PUSH2 0xD5C DUP1 PUSH2 0x20 PUSH1 0x0 CODECOPY PUSH1 0x0 RETURN INVALID PUSH1 0x80 PUSH1 0x40 MSTORE CALLVALUE DUP1 ISZERO PUSH2 0x10 JUMPI PUSH1 0x0 DUP1 REVERT JUMPDEST POP PUSH1 0x4 CALLDATASIZE LT PUSH2 0x2B JUMPI PUSH1 0x0 CALLDATALOAD PUSH1 0xE0 SHR DUP1 PUSH4 0x32503EB1 EQ PUSH2 0x30 JUMPI JUMPDEST PUSH1 0x0 DUP1 REVERT JUMPDEST PUSH2 0x4A PUSH1 0x4 DUP1 CALLDATASIZE SUB DUP2 ADD SWAP1 PUSH2 0x45 SWAP2 SWAP1 PUSH2 0x773 JUMP JUMPDEST PUSH2 0x60 JUMP JUMPDEST PUSH1 0x40 MLOAD PUSH2 0x57 SWAP2 SWAP1 PUSH2 0x82D JUMP JUMPDEST PUSH1 0x40 MLOAD DUP1 SWAP2 SUB SWAP1 RETURN JUMPDEST PUSH1 0x0 PUSH1 0x1 DUP5 MLOAD GT DUP1 ISZERO PUSH2 0x80 JUMPI POP PUSH1 0x0 PUSH1 0x2 DUP6 MLOAD PUSH2 0x7E SWAP2 SWAP1 PUSH2 0x877 JUMP JUMPDEST EQ JUMPDEST PUSH2 0xBF JUMPI PUSH1 0x40 MLOAD PUSH32 0x8C379A000000000000000000000000000000000000000000000000000000000 DUP2 MSTORE PUSH1 0x4 ADD PUSH2 0xB6 SWAP1 PUSH2 0x92B JUMP JUMPDEST PUSH1 0x40 MLOAD DUP1 SWAP2 SUB SWAP1 REVERT JUMPDEST PUSH1 0x2 DUP5 MLOAD PUSH2 0xCD SWAP2 SWAP1 PUSH2 0x97A JUMP JUMPDEST DUP4 MLOAD EQ PUSH2 0x10F JUMPI PUSH1 0x40 MLOAD PUSH32 0x8C379A000000000000000000000000000000000000000000000000000000000 DUP2 MSTORE PUSH1 0x4 ADD PUSH2 0x106 SWAP1 PUSH2 0xA1D JUMP JUMPDEST PUSH1 0x40 MLOAD DUP1 SWAP2 SUB SWAP1 REVERT JUMPDEST PUSH1 0x0 PUSH2 0x16F DUP7 DUP6 PUSH1 0x0 DUP2 MLOAD DUP2 LT PUSH2 0x129 JUMPI PUSH2 0x128 PUSH2 0xA3D JUMP JUMPDEST JUMPDEST PUSH1 0x20 MUL PUSH1 0x20 ADD ADD MLOAD DUP6 DUP9 PUSH1 0x0 DUP2 MLOAD DUP2 LT PUSH2 0x146 JUMPI PUSH2 0x145 PUSH2 0xA3D JUMP JUMPDEST JUMPDEST PUSH1 0x20 MUL PUSH1 0x20 ADD ADD MLOAD DUP10 PUSH1 0x1 DUP2 MLOAD DUP2 LT PUSH2 0x162 JUMPI PUSH2 0x161 PUSH2 0xA3D JUMP JUMPDEST JUMPDEST PUSH1 0x20 MUL PUSH1 0x20 ADD ADD MLOAD PUSH2 0x223 JUMP JUMPDEST SWAP1 POP PUSH1 0x0 PUSH1 0x1 SWAP1 POP JUMPDEST DUP5 MLOAD DUP2 LT ISZERO PUSH2 0x214 JUMPI PUSH2 0x1FF DUP6 DUP3 DUP2 MLOAD DUP2 LT PUSH2 0x197 JUMPI PUSH2 0x196 PUSH2 0xA3D JUMP JUMPDEST JUMPDEST PUSH1 0x20 MUL PUSH1 0x20 ADD ADD MLOAD DUP4 DUP9 DUP5 PUSH1 0x2 PUSH2 0x1AE SWAP2 SWAP1 PUSH2 0xA6C JUMP JUMPDEST DUP2 MLOAD DUP2 LT PUSH2 0x1BF JUMPI PUSH2 0x1BE PUSH2 0xA3D JUMP JUMPDEST JUMPDEST PUSH1 0x20 MUL PUSH1 0x20 ADD ADD MLOAD DUP10 PUSH1 0x1 DUP7 PUSH1 0x2 PUSH2 0x1D7 SWAP2 SWAP1 PUSH2 0xA6C JUMP JUMPDEST PUSH2 0x1E1 SWAP2 SWAP1 PUSH2 0xAAE JUMP JUMPDEST DUP2 MLOAD DUP2 LT PUSH2 0x1F2 JUMPI PUSH2 0x1F1 PUSH2 0xA3D JUMP JUMPDEST JUMPDEST PUSH1 0x20 MUL PUSH1 0x20 ADD ADD MLOAD PUSH2 0x30A JUMP JUMPDEST SWAP2 POP DUP1 DUP1 PUSH2 0x20C SWAP1 PUSH2 0xAE2 JUMP JUMPDEST SWAP2 POP POP PUSH2 0x178 JUMP JUMPDEST POP DUP1 DUP4 EQ SWAP2 POP POP SWAP5 SWAP4 POP POP POP POP JUMP JUMPDEST PUSH1 0x0 PUSH2 0x254 DUP4 DUP4 PUSH1 0x0 PUSH1 0x7 PUSH32 0xFFFFFFFFFFFFFFFFFFFFFFFFFFFFFFFFFFFFFFFFFFFFFFFFFFFFFFFEFFFFFC2F PUSH2 0x3EE JUMP JUMPDEST PUSH2 0x293 JUMPI PUSH1 0x40 MLOAD PUSH32 0x8C379A000000000000000000000000000000000000000000000000000000000 DUP2 MSTORE PUSH1 0x4 ADD PUSH2 0x28A SWAP1 PUSH2 0xB76 JUMP JUMPDEST PUSH1 0x40 MLOAD DUP1 SWAP2 SUB SWAP1 REVERT JUMPDEST PUSH1 0x0 PUSH2 0x2A1 DUP7 DUP6 DUP6 DUP9 PUSH2 0x4BC JUMP JUMPDEST SWAP1 POP PUSH1 0x0 DUP8 DUP3 PUSH1 0x40 MLOAD PUSH1 0x20 ADD PUSH2 0x2B8 SWAP3 SWAP2 SWAP1 PUSH2 0xC31 JUMP JUMPDEST PUSH1 0x40 MLOAD PUSH1 0x20 DUP2 DUP4 SUB SUB DUP2 MSTORE SWAP1 PUSH1 0x40 MSTORE SWAP1 POP PUSH2 0x2FD DUP2 DUP1 MLOAD SWAP1 PUSH1 0x20 ADD KECCAK256 PUSH1 0x0 SHR PUSH32 0xFFFFFFFFFFFFFFFFFFFFFFFFFFFFFFFEBAAEDCE6AF48A03BBFD25E8CD0364141 PUSH2 0x59D JUMP JUMPDEST SWAP3 POP POP POP SWAP6 SWAP5 POP POP POP POP POP JUMP JUMPDEST PUSH1 0x0 PUSH2 0x33B DUP4 DUP4 PUSH1 0x0 PUSH1 0x7 PUSH32 0xFFFFFFFFFFFFFFFFFFFFFFFFFFFFFFFFFFFFFFFFFFFFFFFFFFFFFFFEFFFFFC2F PUSH2 0x3EE JUMP JUMPDEST PUSH2 0x37A JUMPI PUSH1 0x40 MLOAD PUSH32 0x8C379A000000000000000000000000000000000000000000000000000000000 DUP2 MSTORE PUSH1 0x4 ADD PUSH2 0x371 SWAP1 PUSH2 0xB76 JUMP JUMPDEST PUSH1 0x40 MLOAD DUP1 SWAP2 SUB SWAP1 REVERT JUMPDEST PUSH1 0x0 PUSH2 0x388 DUP7 DUP6 DUP6 DUP9 PUSH2 0x4BC JUMP JUMPDEST SWAP1 POP PUSH1 0x0 DUP2 PUSH1 0x40 MLOAD PUSH1 0x20 ADD PUSH2 0x39D SWAP2 SWAP1 PUSH2 0xC5D JUMP JUMPDEST PUSH1 0x40 MLOAD PUSH1 0x20 DUP2 DUP4 SUB SUB DUP2 MSTORE SWAP1 PUSH1 0x40 MSTORE SWAP1 POP PUSH2 0x3E2 DUP2 DUP1 MLOAD SWAP1 PUSH1 0x20 ADD KECCAK256 PUSH1 0x0 SHR PUSH32 0xFFFFFFFFFFFFFFFFFFFFFFFFFFFFFFFEBAAEDCE6AF48A03BBFD25E8CD0364141 PUSH2 0x59D JUMP JUMPDEST SWAP3 POP POP POP SWAP5 SWAP4 POP POP POP POP JUMP JUMPDEST PUSH1 0x0 DUP6 PUSH1 0x0 EQ DUP1 PUSH2 0x3FF JUMPI POP DUP2 DUP7 LT ISZERO JUMPDEST DUP1 PUSH2 0x40A JUMPI POP DUP5 PUSH1 0x0 EQ JUMPDEST DUP1 PUSH2 0x415 JUMPI POP DUP2 DUP6 LT ISZERO JUMPDEST ISZERO PUSH2 0x423 JUMPI PUSH1 0x0 SWAP1 POP PUSH2 0x4B3 JUMP JUMPDEST PUSH1 0x0 DUP3 DUP1 PUSH2 0x434 JUMPI PUSH2 0x433 PUSH2 0x848 JUMP JUMPDEST JUMPDEST DUP7 DUP8 MULMOD SWAP1 POP PUSH1 0x0 DUP4 DUP1 PUSH2 0x44A JUMPI PUSH2 0x449 PUSH2 0x848 JUMP JUMPDEST JUMPDEST DUP9 DUP6 DUP1 PUSH2 0x45A JUMPI PUSH2 0x459 PUSH2 0x848 JUMP JUMPDEST JUMPDEST DUP11 DUP12 MULMOD MULMOD SWAP1 POP PUSH1 0x0 DUP7 EQ PUSH2 0x48E JUMPI DUP4 DUP1 PUSH2 0x477 JUMPI PUSH2 0x476 PUSH2 0x848 JUMP JUMPDEST JUMPDEST DUP5 DUP1 PUSH2 0x486 JUMPI PUSH2 0x485 PUSH2 0x848 JUMP JUMPDEST JUMPDEST DUP8 DUP11 MULMOD DUP3 ADDMOD SWAP1 POP JUMPDEST PUSH1 0x0 DUP6 EQ PUSH2 0x4AB JUMPI DUP4 DUP1 PUSH2 0x4A5 JUMPI PUSH2 0x4A4 PUSH2 0x848 JUMP JUMPDEST JUMPDEST DUP6 DUP3 ADDMOD SWAP1 POP JUMPDEST DUP1 DUP3 EQ SWAP3 POP POP POP JUMPDEST SWAP6 SWAP5 POP POP POP POP POP JUMP JUMPDEST PUSH1 0x0 DUP1 PUSH32 0xFFFFFFFFFFFFFFFFFFFFFFFFFFFFFFFEBAAEDCE6AF48A03BBFD25E8CD0364141 SWAP1 POP DUP1 DUP1 PUSH2 0x4F1 JUMPI PUSH2 0x4F0 PUSH2 0x848 JUMP JUMPDEST JUMPDEST DUP6 DUP3 DUP9 DUP5 PUSH2 0x4FF SWAP2 SWAP1 PUSH2 0xC78 JUMP JUMPDEST PUSH2 0x509 SWAP2 SWAP1 PUSH2 0x877 JUMP JUMPDEST MULMOD SWAP6 POP PUSH1 0x1 DUP7 PUSH1 0x0 SHL PUSH1 0x0 PUSH1 0x2 DUP8 PUSH2 0x521 SWAP2 SWAP1 PUSH2 0x877 JUMP JUMPDEST SUB PUSH2 0x52D JUMPI PUSH1 0x1B PUSH2 0x530 JUMP JUMPDEST PUSH1 0x1C JUMPDEST DUP8 PUSH1 0x0 SHL DUP5 DUP1 PUSH2 0x543 JUMPI PUSH2 0x542 PUSH2 0x848 JUMP JUMPDEST JUMPDEST DUP10 DUP9 MULMOD PUSH1 0x0 SHL PUSH1 0x40 MLOAD PUSH1 0x0 DUP2 MSTORE PUSH1 0x20 ADD PUSH1 0x40 MSTORE PUSH1 0x40 MLOAD PUSH2 0x566 SWAP5 SWAP4 SWAP3 SWAP2 SWAP1 PUSH2 0xCE1 JUMP JUMPDEST PUSH1 0x20 PUSH1 0x40 MLOAD PUSH1 0x20 DUP2 SUB SWAP1 DUP1 DUP5 SUB SWAP1 DUP6 GAS STATICCALL ISZERO DUP1 ISZERO PUSH2 0x588 JUMPI RETURNDATASIZE PUSH1 0x0 DUP1 RETURNDATACOPY RETURNDATASIZE PUSH1 0x0 REVERT JUMPDEST POP POP POP PUSH1 0x20 PUSH1 0x40 MLOAD SUB MLOAD SWAP2 POP POP SWAP5 SWAP4 POP POP POP POP JUMP JUMPDEST PUSH1 0x0 DUP1 DUP3 DUP5 PUSH2 0x5AC SWAP2 SWAP1 PUSH2 0x877 JUMP JUMPDEST SWAP1 POP PUSH1 0x0 DUP2 LT ISZERO PUSH2 0x5C6 JUMPI DUP3 DUP2 PUSH2 0x5C3 SWAP2 SWAP1 PUSH2 0xAAE JUMP JUMPDEST SWAP1 POP JUMPDEST DUP1 SWAP2 POP POP SWAP3 SWAP2 POP POP JUMP JUMPDEST PUSH1 0x0 PUSH1 0x40 MLOAD SWAP1 POP SWAP1 JUMP JUMPDEST PUSH1 0x0 DUP1 REVERT JUMPDEST PUSH1 0x0 DUP1 REVERT JUMPDEST PUSH1 0x0 DUP2 SWAP1 POP SWAP2 SWAP1 POP JUMP JUMPDEST PUSH2 0x5F7 DUP2 PUSH2 0x5E4 JUMP JUMPDEST DUP2 EQ PUSH2 0x602 JUMPI PUSH1 0x0 DUP1 REVERT JUMPDEST POP JUMP JUMPDEST PUSH1 0x0 DUP2 CALLDATALOAD SWAP1 POP PUSH2 0x614 DUP2 PUSH2 0x5EE JUMP JUMPDEST SWAP3 SWAP2 POP POP JUMP JUMPDEST PUSH1 0x0 DUP1 REVERT JUMPDEST PUSH1 0x0 PUSH1 0x1F NOT PUSH1 0x1F DUP4 ADD AND SWAP1 POP SWAP2 SWAP1 POP JUMP JUMPDEST PUSH32 0x4E487B7100000000000000000000000000000000000000000000000000000000 PUSH1 0x0 MSTORE PUSH1 0x41 PUSH1 0x4 MSTORE PUSH1 0x24 PUSH1 0x0 REVERT JUMPDEST PUSH2 0x668 DUP3 PUSH2 0x61F JUMP JUMPDEST DUP2 ADD DUP2 DUP2 LT PUSH8 0xFFFFFFFFFFFFFFFF DUP3 GT OR ISZERO PUSH2 0x687 JUMPI PUSH2 0x686 PUSH2 0x630 JUMP JUMPDEST JUMPDEST DUP1 PUSH1 0x40 MSTORE POP POP POP JUMP JUMPDEST PUSH1 0x0 PUSH2 0x69A PUSH2 0x5D0 JUMP JUMPDEST SWAP1 POP PUSH2 0x6A6 DUP3 DUP3 PUSH2 0x65F JUMP JUMPDEST SWAP2 SWAP1 POP JUMP JUMPDEST PUSH1 0x0 PUSH8 0xFFFFFFFFFFFFFFFF DUP3 GT ISZERO PUSH2 0x6C6 JUMPI PUSH2 0x6C5 PUSH2 0x630 JUMP JUMPDEST JUMPDEST PUSH1 0x20 DUP3 MUL SWAP1 POP PUSH1 0x20 DUP2 ADD SWAP1 POP SWAP2 SWAP1 POP JUMP JUMPDEST PUSH1 0x0 DUP1 REVERT JUMPDEST PUSH1 0x0 PUSH2 0x6EF PUSH2 0x6EA DUP5 PUSH2 0x6AB JUMP JUMPDEST PUSH2 0x690 JUMP JUMPDEST SWAP1 POP DUP1 DUP4 DUP3 MSTORE PUSH1 0x20 DUP3 ADD SWAP1 POP PUSH1 0x20 DUP5 MUL DUP4 ADD DUP6 DUP2 GT ISZERO PUSH2 0x712 JUMPI PUSH2 0x711 PUSH2 0x6D7 JUMP JUMPDEST JUMPDEST DUP4 JUMPDEST DUP2 DUP2 LT ISZERO PUSH2 0x73B JUMPI DUP1 PUSH2 0x727 DUP9 DUP3 PUSH2 0x605 JUMP JUMPDEST DUP5 MSTORE PUSH1 0x20 DUP5 ADD SWAP4 POP POP PUSH1 0x20 DUP2 ADD SWAP1 POP PUSH2 0x714 JUMP JUMPDEST POP POP POP SWAP4 SWAP3 POP POP POP JUMP JUMPDEST PUSH1 0x0 DUP3 PUSH1 0x1F DUP4 ADD SLT PUSH2 0x75A JUMPI PUSH2 0x759 PUSH2 0x61A JUMP JUMPDEST JUMPDEST DUP2 CALLDATALOAD PUSH2 0x76A DUP5 DUP3 PUSH1 0x20 DUP7 ADD PUSH2 0x6DC JUMP JUMPDEST SWAP2 POP POP SWAP3 SWAP2 POP POP JUMP JUMPDEST PUSH1 0x0 DUP1 PUSH1 0x0 DUP1 PUSH1 0x80 DUP6 DUP8 SUB SLT ISZERO PUSH2 0x78D JUMPI PUSH2 0x78C PUSH2 0x5DA JUMP JUMPDEST JUMPDEST PUSH1 0x0 PUSH2 0x79B DUP8 DUP3 DUP9 ADD PUSH2 0x605 JUMP JUMPDEST SWAP5 POP POP PUSH1 0x20 DUP6 ADD CALLDATALOAD PUSH8 0xFFFFFFFFFFFFFFFF DUP2 GT ISZERO PUSH2 0x7BC JUMPI PUSH2 0x7BB PUSH2 0x5DF JUMP JUMPDEST JUMPDEST PUSH2 0x7C8 DUP8 DUP3 DUP9 ADD PUSH2 0x745 JUMP JUMPDEST SWAP4 POP POP PUSH1 0x40 DUP6 ADD CALLDATALOAD PUSH8 0xFFFFFFFFFFFFFFFF DUP2 GT ISZERO PUSH2 0x7E9 JUMPI PUSH2 0x7E8 PUSH2 0x5DF JUMP JUMPDEST JUMPDEST PUSH2 0x7F5 DUP8 DUP3 DUP9 ADD PUSH2 0x745 JUMP JUMPDEST SWAP3 POP POP PUSH1 0x60 PUSH2 0x806 DUP8 DUP3 DUP9 ADD PUSH2 0x605 JUMP JUMPDEST SWAP2 POP POP SWAP3 SWAP6 SWAP2 SWAP5 POP SWAP3 POP JUMP JUMPDEST PUSH1 0x0 DUP2 ISZERO ISZERO SWAP1 POP SWAP2 SWAP1 POP JUMP JUMPDEST PUSH2 0x827 DUP2 PUSH2 0x812 JUMP JUMPDEST DUP3 MSTORE POP POP JUMP JUMPDEST PUSH1 0x0 PUSH1 0x20 DUP3 ADD SWAP1 POP PUSH2 0x842 PUSH1 0x0 DUP4 ADD DUP5 PUSH2 0x81E JUMP JUMPDEST SWAP3 SWAP2 POP POP JUMP JUMPDEST PUSH32 0x4E487B7100000000000000000000000000000000000000000000000000000000 PUSH1 0x0 MSTORE PUSH1 0x12 PUSH1 0x4 MSTORE PUSH1 0x24 PUSH1 0x0 REVERT JUMPDEST PUSH1 0x0 PUSH2 0x882 DUP3 PUSH2 0x5E4 JUMP JUMPDEST SWAP2 POP PUSH2 0x88D DUP4 PUSH2 0x5E4 JUMP JUMPDEST SWAP3 POP DUP3 PUSH2 0x89D JUMPI PUSH2 0x89C PUSH2 0x848 JUMP JUMPDEST JUMPDEST DUP3 DUP3 MOD SWAP1 POP SWAP3 SWAP2 POP POP JUMP JUMPDEST PUSH1 0x0 DUP3 DUP3 MSTORE PUSH1 0x20 DUP3 ADD SWAP1 POP SWAP3 SWAP2 POP POP JUMP JUMPDEST PUSH32 0x52696E67206C656E677468206D757374206265206576656E20616E6420677265 PUSH1 0x0 DUP3 ADD MSTORE PUSH32 0x61746572207468616E2031000000000000000000000000000000000000000000 PUSH1 0x20 DUP3 ADD MSTORE POP JUMP JUMPDEST PUSH1 0x0 PUSH2 0x915 PUSH1 0x2B DUP4 PUSH2 0x8A8 JUMP JUMPDEST SWAP2 POP PUSH2 0x920 DUP3 PUSH2 0x8B9 JUMP JUMPDEST PUSH1 0x40 DUP3 ADD SWAP1 POP SWAP2 SWAP1 POP JUMP JUMPDEST PUSH1 0x0 PUSH1 0x20 DUP3 ADD SWAP1 POP DUP2 DUP2 SUB PUSH1 0x0 DUP4 ADD MSTORE PUSH2 0x944 DUP2 PUSH2 0x908 JUMP JUMPDEST SWAP1 POP SWAP2 SWAP1 POP JUMP JUMPDEST PUSH32 0x4E487B7100000000000000000000000000000000000000000000000000000000 PUSH1 0x0 MSTORE PUSH1 0x11 PUSH1 0x4 MSTORE PUSH1 0x24 PUSH1 0x0 REVERT JUMPDEST PUSH1 0x0 PUSH2 0x985 DUP3 PUSH2 0x5E4 JUMP JUMPDEST SWAP2 POP PUSH2 0x990 DUP4 PUSH2 0x5E4 JUMP JUMPDEST SWAP3 POP DUP3 PUSH2 0x9A0 JUMPI PUSH2 0x99F PUSH2 0x848 JUMP JUMPDEST JUMPDEST DUP3 DUP3 DIV SWAP1 POP SWAP3 SWAP2 POP POP JUMP JUMPDEST PUSH32 0x526573706F6E736573206C656E677468206D75737420626520657175616C2074 PUSH1 0x0 DUP3 ADD MSTORE PUSH32 0x6F2072696E67206C656E677468202F2032000000000000000000000000000000 PUSH1 0x20 DUP3 ADD MSTORE POP JUMP JUMPDEST PUSH1 0x0 PUSH2 0xA07 PUSH1 0x31 DUP4 PUSH2 0x8A8 JUMP JUMPDEST SWAP2 POP PUSH2 0xA12 DUP3 PUSH2 0x9AB JUMP JUMPDEST PUSH1 0x40 DUP3 ADD SWAP1 POP SWAP2 SWAP1 POP JUMP JUMPDEST PUSH1 0x0 PUSH1 0x20 DUP3 ADD SWAP1 POP DUP2 DUP2 SUB PUSH1 0x0 DUP4 ADD MSTORE PUSH2 0xA36 DUP2 PUSH2 0x9FA JUMP JUMPDEST SWAP1 POP SWAP2 SWAP1 POP JUMP JUMPDEST PUSH32 0x4E487B7100000000000000000000000000000000000000000000000000000000 PUSH1 0x0 MSTORE PUSH1 0x32 PUSH1 0x4 MSTORE PUSH1 0x24 PUSH1 0x0 REVERT JUMPDEST PUSH1 0x0 PUSH2 0xA77 DUP3 PUSH2 0x5E4 JUMP JUMPDEST SWAP2 POP PUSH2 0xA82 DUP4 PUSH2 0x5E4 JUMP JUMPDEST SWAP3 POP DUP3 DUP3 MUL PUSH2 0xA90 DUP2 PUSH2 0x5E4 JUMP JUMPDEST SWAP2 POP DUP3 DUP3 DIV DUP5 EQ DUP4 ISZERO OR PUSH2 0xAA7 JUMPI PUSH2 0xAA6 PUSH2 0x94B JUMP JUMPDEST JUMPDEST POP SWAP3 SWAP2 POP POP JUMP JUMPDEST PUSH1 0x0 PUSH2 0xAB9 DUP3 PUSH2 0x5E4 JUMP JUMPDEST SWAP2 POP PUSH2 0xAC4 DUP4 PUSH2 0x5E4 JUMP JUMPDEST SWAP3 POP DUP3 DUP3 ADD SWAP1 POP DUP1 DUP3 GT ISZERO PUSH2 0xADC JUMPI PUSH2 0xADB PUSH2 0x94B JUMP JUMPDEST JUMPDEST SWAP3 SWAP2 POP POP JUMP JUMPDEST PUSH1 0x0 PUSH2 0xAED DUP3 PUSH2 0x5E4 JUMP JUMPDEST SWAP2 POP PUSH32 0xFFFFFFFFFFFFFFFFFFFFFFFFFFFFFFFFFFFFFFFFFFFFFFFFFFFFFFFFFFFFFFFF DUP3 SUB PUSH2 0xB1F JUMPI PUSH2 0xB1E PUSH2 0x94B JUMP JUMPDEST JUMPDEST PUSH1 0x1 DUP3 ADD SWAP1 POP SWAP2 SWAP1 POP JUMP JUMPDEST PUSH32 0x70726576696F75735075624B6579206973206E6F74206F6E2063757276650000 PUSH1 0x0 DUP3 ADD MSTORE POP JUMP JUMPDEST PUSH1 0x0 PUSH2 0xB60 PUSH1 0x1E DUP4 PUSH2 0x8A8 JUMP JUMPDEST SWAP2 POP PUSH2 0xB6B DUP3 PUSH2 0xB2A JUMP JUMPDEST PUSH1 0x20 DUP3 ADD SWAP1 POP SWAP2 SWAP1 POP JUMP JUMPDEST PUSH1 0x0 PUSH1 0x20 DUP3 ADD SWAP1 POP DUP2 DUP2 SUB PUSH1 0x0 DUP4 ADD MSTORE PUSH2 0xB8F DUP2 PUSH2 0xB53 JUMP JUMPDEST SWAP1 POP SWAP2 SWAP1 POP JUMP JUMPDEST PUSH1 0x0 DUP2 SWAP1 POP SWAP2 SWAP1 POP JUMP JUMPDEST PUSH2 0xBB1 PUSH2 0xBAC DUP3 PUSH2 0x5E4 JUMP JUMPDEST PUSH2 0xB96 JUMP JUMPDEST DUP3 MSTORE POP POP JUMP JUMPDEST PUSH1 0x0 PUSH20 0xFFFFFFFFFFFFFFFFFFFFFFFFFFFFFFFFFFFFFFFF DUP3 AND SWAP1 POP SWAP2 SWAP1 POP JUMP JUMPDEST PUSH1 0x0 PUSH2 0xBE2 DUP3 PUSH2 0xBB7 JUMP JUMPDEST SWAP1 POP SWAP2 SWAP1 POP JUMP JUMPDEST PUSH1 0x0 DUP2 PUSH1 0x60 SHL SWAP1 POP SWAP2 SWAP1 POP JUMP JUMPDEST PUSH1 0x0 PUSH2 0xC01 DUP3 PUSH2 0xBE9 JUMP JUMPDEST SWAP1 POP SWAP2 SWAP1 POP JUMP JUMPDEST PUSH1 0x0 PUSH2 0xC13 DUP3 PUSH2 0xBF6 JUMP JUMPDEST SWAP1 POP SWAP2 SWAP1 POP JUMP JUMPDEST PUSH2 0xC2B PUSH2 0xC26 DUP3 PUSH2 0xBD7 JUMP JUMPDEST PUSH2 0xC08 JUMP JUMPDEST DUP3 MSTORE POP POP JUMP JUMPDEST PUSH1 0x0 PUSH2 0xC3D DUP3 DUP6 PUSH2 0xBA0 JUMP JUMPDEST PUSH1 0x20 DUP3 ADD SWAP2 POP PUSH2 0xC4D DUP3 DUP5 PUSH2 0xC1A JUMP JUMPDEST PUSH1 0x14 DUP3 ADD SWAP2 POP DUP2 SWAP1 POP SWAP4 SWAP3 POP POP POP JUMP JUMPDEST PUSH1 0x0 PUSH2 0xC69 DUP3 DUP5 PUSH2 0xC1A JUMP JUMPDEST PUSH1 0x14 DUP3 ADD SWAP2 POP DUP2 SWAP1 POP SWAP3 SWAP2 POP POP JUMP JUMPDEST PUSH1 0x0 PUSH2 0xC83 DUP3 PUSH2 0x5E4 JUMP JUMPDEST SWAP2 POP PUSH2 0xC8E DUP4 PUSH2 0x5E4 JUMP JUMPDEST SWAP3 POP DUP3 DUP3 SUB SWAP1 POP DUP2 DUP2 GT ISZERO PUSH2 0xCA6 JUMPI PUSH2 0xCA5 PUSH2 0x94B JUMP JUMPDEST JUMPDEST SWAP3 SWAP2 POP POP JUMP JUMPDEST PUSH1 0x0 DUP2 SWAP1 POP SWAP2 SWAP1 POP JUMP JUMPDEST PUSH2 0xCBF DUP2 PUSH2 0xCAC JUMP JUMPDEST DUP3 MSTORE POP POP JUMP JUMPDEST PUSH1 0x0 PUSH1 0xFF DUP3 AND SWAP1 POP SWAP2 SWAP1 POP JUMP JUMPDEST PUSH2 0xCDB DUP2 PUSH2 0xCC5 JUMP JUMPDEST DUP3 MSTORE POP POP JUMP JUMPDEST PUSH1 0x0 PUSH1 0x80 DUP3 ADD SWAP1 POP PUSH2 0xCF6 PUSH1 0x0 DUP4 ADD DUP8 PUSH2 0xCB6 JUMP JUMPDEST PUSH2 0xD03 PUSH1 0x20 DUP4 ADD DUP7 PUSH2 0xCD2 JUMP JUMPDEST PUSH2 0xD10 PUSH1 0x40 DUP4 ADD DUP6 PUSH2 0xCB6 JUMP JUMPDEST PUSH2 0xD1D PUSH1 0x60 DUP4 ADD DUP5 PUSH2 0xCB6 JUMP JUMPDEST SWAP6 SWAP5 POP POP POP POP POP JUMP INVALID LOG2 PUSH5 0x6970667358 0x22 SLT KECCAK256 0xE6 PUSH17 0x5D45EDFC523EAB268D4933A63391967E3 NUMBER AND 0xE7 SWAP4 DUP11 PUSH32 0x6C7042AD6EE2C64736F6C634300081400330000000000000000000000000000 "},"methodIdentifiers":{"verifyRingSignature(uint256,uint256[],uint256[],uint256)":"32503eb1"}}}}}