{
  "_format": "hh-sol-artifact-1",
  "contractName": "RingSigVerifier",
  "sourceName": "contracts/ringSigVerifier.sol",
  "abi": [
    {
      "inputs": [],
      "stateMutability": "nonpayable",
      "type": "constructor"
    },
    {
      "inputs": [
        {
          "internalType": "uint256",
          "name": "message",
          "type": "uint256"
        },
        {
          "internalType": "uint256[]",
          "name": "ring",
          "type": "uint256[]"
        },
        {
          "internalType": "uint256[]",
          "name": "responses",
          "type": "uint256[]"
        },
        {
          "internalType": "uint256",
          "name": "c",
          "type": "uint256"
        }
      ],
      "name": "verifyRingSignature",
      "outputs": [
        {
          "internalType": "bool",
          "name": "",
          "type": "bool"
        }
      ],
      "stateMutability": "pure",
      "type": "function"
    }
  ],
  "bytecode": "0x608060405234801561001057600080fd5b50610d5c806100206000396000f3fe608060405234801561001057600080fd5b506004361061002b5760003560e01c806332503eb114610030575b600080fd5b61004a60048036038101906100459190610773565b610060565b604051610057919061082d565b60405180910390f35b600060018451118015610080575060006002855161007e9190610877565b145b6100bf576040517f08c379a00000000000000000000000000000000000000000000000000000000081526004016100b69061092b565b60405180910390fd5b600284516100cd919061097a565b83511461010f576040517f08c379a000000000000000000000000000000000000000000000000000000000815260040161010690610a1d565b60405180910390fd5b600061016f868560008151811061012957610128610a3d565b5b6020026020010151858860008151811061014657610145610a3d565b5b60200260200101518960018151811061016257610161610a3d565b5b6020026020010151610223565b90506000600190505b8451811015610214576101ff85828151811061019757610196610a3d565b5b602002602001015183888460026101ae9190610a6c565b815181106101bf576101be610a3d565b5b60200260200101518960018660026101d79190610a6c565b6101e19190610aae565b815181106101f2576101f1610a3d565b5b602002602001015161030a565b9150808061020c90610ae2565b915050610178565b50808314915050949350505050565b60006102548383600060077ffffffffffffffffffffffffffffffffffffffffffffffffffffffffefffffc2f6103ee565b610293576040517f08c379a000000000000000000000000000000000000000000000000000000000815260040161028a90610b76565b60405180910390fd5b60006102a1868585886104bc565b9050600087826040516020016102b8929190610c31565b60405160208183030381529060405290506102fd818051906020012060001c7ffffffffffffffffffffffffffffffffebaaedce6af48a03bbfd25e8cd036414161059d565b9250505095945050505050565b600061033b8383600060077ffffffffffffffffffffffffffffffffffffffffffffffffffffffffefffffc2f6103ee565b61037a576040517f08c379a000000000000000000000000000000000000000000000000000000000815260040161037190610b76565b60405180910390fd5b6000610388868585886104bc565b905060008160405160200161039d9190610c5d565b60405160208183030381529060405290506103e2818051906020012060001c7ffffffffffffffffffffffffffffffffebaaedce6af48a03bbfd25e8cd036414161059d565b92505050949350505050565b600085600014806103ff5750818610155b8061040a5750846000145b806104155750818510155b1561042357600090506104b3565b6000828061043457610433610848565b5b86870990506000838061044a57610449610848565b5b88858061045a57610459610848565b5b8a8b090990506000861461048e57838061047757610476610848565b5b848061048657610485610848565b5b878a09820890505b600085146104ab5783806104a5576104a4610848565b5b85820890505b808214925050505b95945050505050565b6000807ffffffffffffffffffffffffffffffffebaaedce6af48a03bbfd25e8cd0364141905080806104f1576104f0610848565b5b858288846104ff9190610c78565b6105099190610877565b09955060018660001b60006002876105219190610877565b0361052d57601b610530565b601c5b8760001b848061054357610542610848565b5b89880960001b604051600081526020016040526040516105669493929190610ce1565b6020604051602081039080840390855afa158015610588573d6000803e3d6000fd5b50505060206040510351915050949350505050565b60008082846105ac9190610877565b905060008110156105c65782816105c39190610aae565b90505b8091505092915050565b6000604051905090565b600080fd5b600080fd5b6000819050919050565b6105f7816105e4565b811461060257600080fd5b50565b600081359050610614816105ee565b92915050565b600080fd5b6000601f19601f8301169050919050565b7f4e487b7100000000000000000000000000000000000000000000000000000000600052604160045260246000fd5b6106688261061f565b810181811067ffffffffffffffff8211171561068757610686610630565b5b80604052505050565b600061069a6105d0565b90506106a6828261065f565b919050565b600067ffffffffffffffff8211156106c6576106c5610630565b5b602082029050602081019050919050565b600080fd5b60006106ef6106ea846106ab565b610690565b90508083825260208201905060208402830185811115610712576107116106d7565b5b835b8181101561073b57806107278882610605565b845260208401935050602081019050610714565b5050509392505050565b600082601f83011261075a5761075961061a565b5b813561076a8482602086016106dc565b91505092915050565b6000806000806080858703121561078d5761078c6105da565b5b600061079b87828801610605565b945050602085013567ffffffffffffffff8111156107bc576107bb6105df565b5b6107c887828801610745565b935050604085013567ffffffffffffffff8111156107e9576107e86105df565b5b6107f587828801610745565b925050606061080687828801610605565b91505092959194509250565b60008115159050919050565b61082781610812565b82525050565b6000602082019050610842600083018461081e565b92915050565b7f4e487b7100000000000000000000000000000000000000000000000000000000600052601260045260246000fd5b6000610882826105e4565b915061088d836105e4565b92508261089d5761089c610848565b5b828206905092915050565b600082825260208201905092915050565b7f52696e67206c656e677468206d757374206265206576656e20616e642067726560008201527f61746572207468616e2031000000000000000000000000000000000000000000602082015250565b6000610915602b836108a8565b9150610920826108b9565b604082019050919050565b6000602082019050818103600083015261094481610908565b9050919050565b7f4e487b7100000000000000000000000000000000000000000000000000000000600052601160045260246000fd5b6000610985826105e4565b9150610990836105e4565b9250826109a05761099f610848565b5b828204905092915050565b7f526573706f6e736573206c656e677468206d75737420626520657175616c207460008201527f6f2072696e67206c656e677468202f2032000000000000000000000000000000602082015250565b6000610a076031836108a8565b9150610a12826109ab565b604082019050919050565b60006020820190508181036000830152610a36816109fa565b9050919050565b7f4e487b7100000000000000000000000000000000000000000000000000000000600052603260045260246000fd5b6000610a77826105e4565b9150610a82836105e4565b9250828202610a90816105e4565b91508282048414831517610aa757610aa661094b565b5b5092915050565b6000610ab9826105e4565b9150610ac4836105e4565b9250828201905080821115610adc57610adb61094b565b5b92915050565b6000610aed826105e4565b91507fffffffffffffffffffffffffffffffffffffffffffffffffffffffffffffffff8203610b1f57610b1e61094b565b5b600182019050919050565b7f70726576696f75735075624b6579206973206e6f74206f6e2063757276650000600082015250565b6000610b60601e836108a8565b9150610b6b82610b2a565b602082019050919050565b60006020820190508181036000830152610b8f81610b53565b9050919050565b6000819050919050565b610bb1610bac826105e4565b610b96565b82525050565b600073ffffffffffffffffffffffffffffffffffffffff82169050919050565b6000610be282610bb7565b9050919050565b60008160601b9050919050565b6000610c0182610be9565b9050919050565b6000610c1382610bf6565b9050919050565b610c2b610c2682610bd7565b610c08565b82525050565b6000610c3d8285610ba0565b602082019150610c4d8284610c1a565b6014820191508190509392505050565b6000610c698284610c1a565b60148201915081905092915050565b6000610c83826105e4565b9150610c8e836105e4565b9250828203905081811115610ca657610ca561094b565b5b92915050565b6000819050919050565b610cbf81610cac565b82525050565b600060ff82169050919050565b610cdb81610cc5565b82525050565b6000608082019050610cf66000830187610cb6565b610d036020830186610cd2565b610d106040830185610cb6565b610d1d6060830184610cb6565b9594505050505056fea2646970667358221220e67005d45edfc523eab268d4933a63391967e34316e7938a7f06c7042ad6ee2c64736f6c63430008140033",
  "linkReferences": {},
  "deployedLinkReferences": {}
}