{
  "_format": "hh-sol-artifact-1",
  "contractName": "RingSigVerifier",
  "sourceName": "contracts/ringSigVerifier.sol",
  "abi": [
    {
      "inputs": [],
      "stateMutability": "nonpayable",
      "type": "constructor"
    },
    {
      "inputs": [
        {
          "internalType": "uint256",
          "name": "message",
          "type": "uint256"
        },
        {
          "internalType": "uint256[]",
          "name": "ring",
          "type": "uint256[]"
        },
        {
          "internalType": "uint256[]",
          "name": "responses",
          "type": "uint256[]"
        },
        {
          "internalType": "uint256",
          "name": "c",
          "type": "uint256"
        }
      ],
      "name": "verifyRingSignature",
      "outputs": [
        {
          "internalType": "bool",
          "name": "",
          "type": "bool"
        }
      ],
      "stateMutability": "pure",
      "type": "function"
    }
  ],
  "bytecode": "0x608060405234801561001057600080fd5b50610d0e806100206000396000f3fe608060405234801561001057600080fd5b506004361061002b5760003560e01c806332503eb114610030575b600080fd5b61004a6004803603810190610045919061079f565b610060565b6040516100579190610859565b60405180910390f35b600060018451118015610080575060006002855161007e91906108a3565b145b6100bf576040517f08c379a00000000000000000000000000000000000000000000000000000000081526004016100b690610957565b60405180910390fd5b600284516100cd91906109a6565b83511461010f576040517f08c379a000000000000000000000000000000000000000000000000000000000815260040161010690610a49565b60405180910390fd5b600061016f868560008151811061012957610128610a69565b5b6020026020010151858860008151811061014657610145610a69565b5b60200260200101518960018151811061016257610161610a69565b5b6020026020010151610223565b90506000600190505b8451811015610214576101ff85828151811061019757610196610a69565b5b602002602001015183888460026101ae9190610a98565b815181106101bf576101be610a69565b5b60200260200101518960018660026101d79190610a98565b6101e19190610ada565b815181106101f2576101f1610a69565b5b6020026020010151610320565b9150808061020c90610b0e565b915050610178565b50808314915050949350505050565b60006102548383600060077ffffffffffffffffffffffffffffffffffffffffffffffffffffffffefffffc2f61041a565b610293576040517f08c379a000000000000000000000000000000000000000000000000000000000815260040161028a90610ba2565b60405180910390fd5b60006102a1868585886104e8565b90506000878273ffffffffffffffffffffffffffffffffffffffff166040516020016102ce929190610be3565b6040516020818303038152906040529050610313818051906020012060001c7ffffffffffffffffffffffffffffffffebaaedce6af48a03bbfd25e8cd03641416105c9565b9250505095945050505050565b60006103518383600060077ffffffffffffffffffffffffffffffffffffffffffffffffffffffffefffffc2f61041a565b610390576040517f08c379a000000000000000000000000000000000000000000000000000000000815260040161038790610ba2565b60405180910390fd5b600061039e868585886104e8565b905060008173ffffffffffffffffffffffffffffffffffffffff166040516020016103c99190610c0f565b604051602081830303815290604052905061040e818051906020012060001c7ffffffffffffffffffffffffffffffffebaaedce6af48a03bbfd25e8cd03641416105c9565b92505050949350505050565b6000856000148061042b5750818610155b806104365750846000145b806104415750818510155b1561044f57600090506104df565b600082806104605761045f610874565b5b86870990506000838061047657610475610874565b5b88858061048657610485610874565b5b8a8b09099050600086146104ba5783806104a3576104a2610874565b5b84806104b2576104b1610874565b5b878a09820890505b600085146104d75783806104d1576104d0610874565b5b85820890505b808214925050505b95945050505050565b6000807ffffffffffffffffffffffffffffffffebaaedce6af48a03bbfd25e8cd03641419050808061051d5761051c610874565b5b8582888461052b9190610c2a565b61053591906108a3565b09955060018660001b600060028761054d91906108a3565b0361055957601b61055c565b601c5b8760001b848061056f5761056e610874565b5b89880960001b604051600081526020016040526040516105929493929190610c93565b6020604051602081039080840390855afa1580156105b4573d6000803e3d6000fd5b50505060206040510351915050949350505050565b60008082846105d891906108a3565b905060008110156105f25782816105ef9190610ada565b90505b8091505092915050565b6000604051905090565b600080fd5b600080fd5b6000819050919050565b61062381610610565b811461062e57600080fd5b50565b6000813590506106408161061a565b92915050565b600080fd5b6000601f19601f8301169050919050565b7f4e487b7100000000000000000000000000000000000000000000000000000000600052604160045260246000fd5b6106948261064b565b810181811067ffffffffffffffff821117156106b3576106b261065c565b5b80604052505050565b60006106c66105fc565b90506106d2828261068b565b919050565b600067ffffffffffffffff8211156106f2576106f161065c565b5b602082029050602081019050919050565b600080fd5b600061071b610716846106d7565b6106bc565b9050808382526020820190506020840283018581111561073e5761073d610703565b5b835b8181101561076757806107538882610631565b845260208401935050602081019050610740565b5050509392505050565b600082601f83011261078657610785610646565b5b8135610796848260208601610708565b91505092915050565b600080600080608085870312156107b9576107b8610606565b5b60006107c787828801610631565b945050602085013567ffffffffffffffff8111156107e8576107e761060b565b5b6107f487828801610771565b935050604085013567ffffffffffffffff8111156108155761081461060b565b5b61082187828801610771565b925050606061083287828801610631565b91505092959194509250565b60008115159050919050565b6108538161083e565b82525050565b600060208201905061086e600083018461084a565b92915050565b7f4e487b7100000000000000000000000000000000000000000000000000000000600052601260045260246000fd5b60006108ae82610610565b91506108b983610610565b9250826108c9576108c8610874565b5b828206905092915050565b600082825260208201905092915050565b7f52696e67206c656e677468206d757374206265206576656e20616e642067726560008201527f61746572207468616e2031000000000000000000000000000000000000000000602082015250565b6000610941602b836108d4565b915061094c826108e5565b604082019050919050565b6000602082019050818103600083015261097081610934565b9050919050565b7f4e487b7100000000000000000000000000000000000000000000000000000000600052601160045260246000fd5b60006109b182610610565b91506109bc83610610565b9250826109cc576109cb610874565b5b828204905092915050565b7f526573706f6e736573206c656e677468206d75737420626520657175616c207460008201527f6f2072696e67206c656e677468202f2032000000000000000000000000000000602082015250565b6000610a336031836108d4565b9150610a3e826109d7565b604082019050919050565b60006020820190508181036000830152610a6281610a26565b9050919050565b7f4e487b7100000000000000000000000000000000000000000000000000000000600052603260045260246000fd5b6000610aa382610610565b9150610aae83610610565b9250828202610abc81610610565b91508282048414831517610ad357610ad2610977565b5b5092915050565b6000610ae582610610565b9150610af083610610565b9250828201905080821115610b0857610b07610977565b5b92915050565b6000610b1982610610565b91507fffffffffffffffffffffffffffffffffffffffffffffffffffffffffffffffff8203610b4b57610b4a610977565b5b600182019050919050565b7f70726576696f75735075624b6579206973206e6f74206f6e2063757276650000600082015250565b6000610b8c601e836108d4565b9150610b9782610b56565b602082019050919050565b60006020820190508181036000830152610bbb81610b7f565b9050919050565b6000819050919050565b610bdd610bd882610610565b610bc2565b82525050565b6000610bef8285610bcc565b602082019150610bff8284610bcc565b6020820191508190509392505050565b6000610c1b8284610bcc565b60208201915081905092915050565b6000610c3582610610565b9150610c4083610610565b9250828203905081811115610c5857610c57610977565b5b92915050565b6000819050919050565b610c7181610c5e565b82525050565b600060ff82169050919050565b610c8d81610c77565b82525050565b6000608082019050610ca86000830187610c68565b610cb56020830186610c84565b610cc26040830185610c68565b610ccf6060830184610c68565b9594505050505056fea2646970667358221220e546040d036ac88154f8e95f90383c3d91c5ff35b8fba97f3073e541a5858c2864736f6c63430008140033",
  "linkReferences": {},
  "deployedLinkReferences": {}
}